:100000000C9434000C9449000C9449000C94490061
:100010000C9449000C9449000C9449000C9449003C
:100020000C9449000C9449000C9449000C9449002C
:100030000C9449000C9449000C9449000C9449001C
:100040000C9449000C9449000C9449000C9449000C
:100050000C9449000C9449000C9449000C944900FC
:100060000C9449000C94490011241FBECFEFD8E036
:10007000DEBFCDBF11E0A0E0B1E0E8E9F1E002C0F1
:1000800005900D92A430B107D9F70E9492000C940C
:10009000CA000C940000CF93DF9300D000D0CDB7FE
:1000A000DEB7409100015091010160910201709111
:1000B000030149835A836B837C83FE01319642E0BE
:1000C00050E061E070E09A012F5F3F4FDC0102C019
:1000D000B595A7952A95E2F79D01A5B120FF09C026
:1000E0009B01038002C0220F331F0A94E2F72A2BE0
:1000F0000AC09B01038002C0220F331F0A94E2F75B
:10010000209530952A2325B94150510931974E3F0A
:10011000BFEF5B07C1F60F900F900F900F90DF912C
:10012000CF91089584B1876184B985B1887E85B9FE
:100130008AB18B7E8AB98BB184618BB9C0E0D0E083
:1001400010E011110FC04A990EC0CF3008F4CF5FF4
:100150008C2F90E00E944B008FEB91E20197F1F71A
:1001600000C0000011E0D1110EC04C990DC0C111AA
:10017000C1508C2F90E00E944B008FEB91E20197D1
:10018000F1F700C00000D1E04A9910E04C9BD9CFB4
:08019000D0E0D7CFF894FFCFB7
:04019800000102045C
:00000001FF
