:100000000C9434000C943E000C943E000C943E0082
:100010000C943E000C943E000C943E000C943E0068
:100020000C943E000C943E000C943E000C943E0058
:100030000C943E000C943E000C943E000C943E0048
:100040000C943E000C943E000C943E000C943E0038
:100050000C943E000C943E000C943E000C943E0028
:100060000C943E000C943E0011241FBECFEFD8E04C
:10007000DEBFCDBF0E9440000C94A7000C9400008E
:10008000CF93DF93CDB7DEB72A970FB6F894DEBFD4
:100090000FBECDBF84E290E09A83898385E290E031
:1000A0009C838B838AE290E09E838D838BE290E039
:1000B00098878F8389E290E09A87898789819A81DE
:1000C000FC018081282F216089819A81FC01208395
:1000D0008B819C81FC018081282F2E7F8B819C81CC
:1000E000FC0120838D819E81FC018081282F2B7F44
:1000F0008D819E81FC0120838F819885FC01808108
:10010000282F24608F819885FC01208389859A851A
:10011000FC018081082E000C990B84709927892B93
:1001200059F08B819C81FC018081282F2E7F8B814F
:100130009C81FC012083EACF8B819C81FC01808122
:10014000282F21608B819C81FC012083DFCFF894D4
:02015000FFCFDF
:00000001FF
